:1027B20025342E30660025332E3166005B76315D7E
:1027C2005B73385D5B6D35325DBEE0C0EB000000CF
:1027D20000000000000000000000000000000000F7
:1027E20000000000BDC7B6C80000000000000000E5
:1027F20000000000000000005B76335D5B73395D12
:102802005B6D35315DC1B9C1B9D0C5BAC5B6AACA09
:10281200A7A3A1005B76335D5B73395D5B6D335DAE
:10282200BBB6D3ADCAB9D3C3423339D5B9CEBBB522
:10283200C4D0A1B3B5A3ACCFB2BBB6C7EBB8F84214
:102842003339CDB6C6B1005B76335D5B73395D5B00
:102852006D35325DCCABD4B6C1CBA3ACC7EBB5C83A
:10286200B5C8CED2A1A3005B76335D5B73395D5BE5
:102872006D335DC7B0B7BDD3D0D5CFB0AD005B76F9
:10288200335D5B73395D5B6D335DBDBBB4F3CAD73A
:10289200BFEED6C7C4DCB8FACBE6D0A1B3B5C9CF78
:1028A200CFDFC0B2A3A1D6C7C4DCD0A1B3B5C1E902
:1028B200BBEED2C6B6AFA3ACC5E3C4FAE0CBB7ADAC
:1028C200CCECA3ACB8F8C4FAB2BBD2BBD1F9B5C454
:1028D200B8FACBE6CCE5D1E9A3A1000000000000E4
:1028E20000000000000000000000000000000000E6
:1028F2000000000000005B76325D5B73395D5B6D4A
:1029020035325DCAD5B5BDD0C5BAC5005B76335D7B
:102912005B7331305D5B6D35325DD7F3005B7633CF
:102922005D5B7331305D5B6D35325DD3D2005B76BA
:0F293200335D5B7331305D5B6D35325DD6B10067
:10147400123554123567123472122A99D2AF7F0A88
:101484007E0012335A7F097E001208FD12349E1228
:101494002259301402C214201303021712C2137803
:1014A40012E2FCE41203AF780A120868780FE2FC37
:1014B400E41203AF7806120868E47812F2780FF2A7
:1014C400300814C2087F01FE1208FDE49000A1F068
:1014D4007FD07E071234A29000A1E0D39406401678
:1014E400900103120874C04000009000D3120874E5
:1014F400C0400000D208300A0CC20A7F097E0012E4
:1015040008FD12349E30160CC2167F0D7E001208A0
:10151400FD12349E301210C2127F0C7E001208FDA0
:101524007F207E031234A2300428C20490010312E7
:101534000874C04000009000D3120874C04000003A
:10154400200706D20AC2168009300706C207D2163F
:10155400C20A1233E8200116900103120874C04035
:1015640000009000D3120874C0400000D2127F9A89
:101574007E197D4C7C43780AE2FB08E2F908E2FA22
:1015840008E2CBF8120186E4FBFA793078411202C2
:101594008FE4FBFA79A0784112028FE4FBFA79F028
:1015A400784112028F9000FF12085CE4FFFEFDFCFC
:1015B400780AE2FB08E2F908E2FA08E2CBF812033F
:1015C4002C600940077F037E0012335A900103E028
:1015D400FCA3E0FDA3E0FEA3E0FF12203D7F337EE9
:1015E400337D737C3F900103E0F8A3E0F9A3E0FAB4
:1015F400A3E0FB1201869000FFE0F8A3E0F9A3E06A
:10160400FAA3E0FB12032C603540337F667E667DCF
:10161400867C3F900103E0F8A3E0F9A3E0FAA3E09D
:10162400FB1201869000FFE0F8A3E0F9A3E0FAA31F
:10163400E0FB12032C50077F027E0012335A7F9A7C
:101644007E197D4C7C437806E2FB08E2F908E2FA55
:1016540008E2CBF8120186E4FBFA793078411202F1
:101664008FE4FBFA79A0784112028FE4FBFA79F057
:10167400784112028F9000A712085CE4FFFEFDFC83
:101684007806E2FB08E2F908E2FA08E2CBF8120372
:101694002C600940077F047E0012335A9000D3E087
:1016A400FCA3E0FDA3E0FEA3E0FF121E137F337E44
:1016B400337D737C3F9000D3E0F8A3E0F9A3E0FA14
:1016C400A3E0FB1201869000A7E0F8A3E0F9A3E0F1
:1016D400FAA3E0FB12032C603540337F667E667DFF
:1016E400867C3F9000D3E0F8A3E0F9A3E0FAA3E0FE
:1016F400FB1201869000A7E0F8A3E0F9A3E0FAA3A7
:10170400E0FB12032C50077F057E0012335A30157C
:1017140002C215300B02C20B300E02C20E300F0291
:10172400C20F200D03021493C20D900133E0B408DC
:10173400004003021493901741F8282873021759A4
:1017440002175C02177002179D0217A00217B3025A
:1017540017D30218480218311234C87F047E0012CD
:1017640008FDE49001C0F07F05FE803E1233B2BF55
:10177400020A900133E02402F00214939001C0E0C5
:101784002405F07F057E001234A29001C0E0D394BA
:101794001E50030214930218400218311234C87FF9
:1017A400027E001208FD7F057E001234A2807E12A4
:1017B40033B2BF0308E4FFFE12335A80709001C0B5
:1017C400E02405F0E0D3941E5003021493806DE4EA
:1017D400900116F0900116E0FDC39404503DE0FC26
:1017E40025E02447F582E43401F583E0FEEC25E0AE
:1017F4002446F582E43401F583E07A002400FFEA0C
:101804003EFEED25E02407F582E43401F583EEF095
:10181400A3EFF0900116E004F080B91230BF501627
:101824001218C5122BEF7F017E0012335A90013338
:10183400E004F00214939000A1E004F0E49001337A
:10184400F0021493E49000A1F090009D12087442F9
:10185400B40000300147E4FFFE7D167C449000A3F1
:10186400E0F8A3E0F9A3E0FAA3E0FB12032C50058F
:1018740012261B8003121BB5E4FFFE7DE17C44901D
:1018840000A3E0F8A3E0F9A3E0FAA3E0FB12032C21
:10189400602440227F0A7E001208FD801920011670
:1018A400900103120874C04000009000D312087421
:1018B400C0400000D212123278E4900133F00214D6
:0118C4009390
:102A9900900103120874000000009000D31208741A
:102AA90000000000900095120874000000009001D9
:102AB900C11208740000000090009D120874000003
:102AC9000000900112120874000000009000FB122F
:102AD900087400000000E47812F2780FF29001BC4B
:102AE9001208740000000090012712087400000009
:102AF90000900134120874000000009001171208B8
:102B09007400000000E4900116F07810F208F2C297
:102B190009C20BC20EC20DC2137815F27810F20861
:102B2900F2C204C2077813F2900133F0C203C2065D
:102B3900900116F0900116E0FFC394045018EF2598
:102B4900E02407F582E43401F583E4F0A3F0900171
:102B590016E004F080DEE4780EF29000A1F0900017
:102B6900AB120874000000009000CF120874000036
:102B790000009000F71208740000000090009912FC
:102B8900087442B400009000A31208740000000009
:102B9900E4900116F0900116E0FFC39408502074E8
:102BA9002B2FF582E43401F583E4F0741B2FF582B1
:102BB900E43401F583E4F0900116E004F080D6E4F2
:102BC9007814F2780A1208A50000000078061208A5
:102BD900A500000000C200C20CC211C210D201C27D
:062BE90008C20AC2162218
:1022590030090DC2097811E22401F218E23400F2C2
:102269007810E2FA08E2FB7C007D1EFFAE0212073D
:10227900CCED4C70047F0180027F00EB4A60047E44
:102289000180027E00EE5F6002D2137810E2FA0844
:10229900E2FB7C007D14FFAE021207CCED4C70040A
:1022A9007F0180027F00EB4A60047E0180027E008C
:1022B900EE5F6002D20D7810E2FA08E2FB7C007D45
:1022C9000AFFAE021207CCED4C70047F0180027F39
:1022D90000EB4A60047E0180027E00EE5F6002D25C
:1022E900147810E2FA08E2FB7C007D32FFAE02129C
:1022F90007CCED4C70047F0180027F00EB4A60043B
:102309007E0180027E00EE5F6002D2157810E2FA4B
:1023190008E2FB7C007D64FFAE021207CCED4C7035
:10232900047F0180027F00EB4A60047E0180027E07
:1023390000EE5F6002D2027810E2FA08E2FB7C014B
:102349007DF4FFAE021207CCED4C70047F018002D0
:102359007F00EB4A60047E0180027E00EE5F60022E
:10236900D2057810E2FA08E2FB7C037DE8FFAE02B1
:102379001207CCED4C70047F0180027F00EB4A60AC
:10238900047E0180027E00EE5F6002D20B7810E2CB
:10239900FA08E2FB7C0B7DB8FFAE021207CCED4CCC
:1023A90070047F0180027F00EB4A60047E01800295
:1023B9007E00EE5F6002D20E7810E2FA08E2FB7C42
:1023C900137D88FFAE021207CCED4C70047F0180AB
:1023D900027F00EB4A60047E0180027E00EE5F60AE
:1023E90002D20F7810E2FC08E2FDE41203AA7B0096
:1023F9007A60796A784712032C7002D2047810E265
:10240900FC08E2FDE41203AA7B007A60796A784746
:1024190012032C5006E47810F208F23004057815FE
:10242900E204F27815E2FF75F00384E5F070047EAA
:102439000180027E00EF60047F0180027F00EF5E71
:0F2449006002D2077815E2D394FA4002E4F2223F
:10327800E4900116F0900116E0FFC394045018EF93
:1032880025E02407F582E43401F583E4F0A3F09007
:103298000116E004F080DE9000FF120874000000C0
:1032A800009000A7120874000000009000AB1208FC
:1032B80074000000009000CF120874000000009015
:1032C80000F7120874000000009000A312087400B0
:1032D80000000090009912087442B40000C200C2B5
:0632E8000CC211C210220D
:1030BF00C217E4FFE4F9FEEEB50702802EEE25E01D
:1030CF002407F582E43401F583E0FCA3E0FDEF254E
:1030DF00E02407F582E43401F583E0FAA3E0D39D01
:1030EF00EC6480F8EA6480984001090EEEB404C7DE
:1030FF00EF25E02407F582E43401F583E0F8A3E03F
:10310F00FDC3740399FE25E02416C8F208EDF2EF13
:10311F00FDEE25E0241EF8E4F208EDF20FEF640453
:10312F007092781CE2FE08E2FFC37817E29FFF1847
:10313F00E29EFEC3EF9490EE648094815002D2170A
:02314F00A217C5
:01315100225B
:10261B00E4FFFE7D207C41900112E0F8A3E0F9A3DA
:10262B00E0FAA3E0FB12032C600840067F01C00711
:10263B0080047F00C007E4FFFE7D487C42900112BE
:10264B00E0F8A3E0F9A3E0FAA3E0FB12032C50049B
:10265B007E0180027E00D0E05E6009781A1208A528
:10266B003E99999AE4FFFE7D487C42900112E0F876
:10267B00A3E0F9A3E0FAA3E0FB12032C60084006E9
:10268B007F01C00780047F00C007E4FFFE7DF07C64
:10269B0042900112E0F8A3E0F9A3E0FAA3E0FB12E9
:1026AB00032C50047E0180027E00D0E05E6009782E
:1026BB001A1208A53F000000E4FFFE7DF07C42905B
:1026CB000112E0F8A3E0F9A3E0FAA3E0FB12032C5C
:1026DB00600B4009781A1208A53F3333339001037E
:1026EB00120874000000009000D312087400000060
:1026FB00009000ABE0FCA3E0FDA3E0FEA3E0FF1223
:10270B000035E4FBFA79C8784212032C4003022708
:10271B00B1E4FFFE7D207C41900112E0F8A3E0F9CB
:10272B00A3E0FAA3E0FB12032C607B407990010F2E
:10273B00E0FCA3E0FDD39400EC6480948040067E23
:10274B00007F008004AE04AF05123583AC06AD07E5
:10275B00EC1203AA781AE2FB08E2F908E2FA08E2A3
:10276B00CBF812018690010312085C90010FE0FE7A
:10277B00A3E0FFD39400EE648094804006AC06ADDA
:10278B000780087E007F007C007D00EC1203AA7896
:10279B001AE2FB08E2F908E2FA08E2CBF81201862A
:0627AB009000D312085C4F
:0127B1002205
:101BB500E4FFFE7D207C41900112E0F8A3E0F9A34B
:101BC500E0FAA3E0FB12032C600840067F01C00782
:101BD50080047F00C007E4FFFE7D487C429001122F
:101BE500E0F8A3E0F9A3E0FAA3E0FB12032C50040C
:101BF5007E0180027E00D0E05E600978161208A59D
:101C05003F333333E4FFFE7D487C42900112E0F818
:101C1500A3E0F9A3E0FAA3E0FB12032C6008400659
:101C25007F01C00780047F00C007E4FFFE7DF07CD4
:101C350042900112E0F8A3E0F9A3E0FAA3E0FB1259
:101C4500032C50047E0180027E00D0E05E6009789E
:101C5500161208A53F000000E4FFFE7DF07C4290CF
:101C65000112E0F8A3E0F9A3E0FAA3E0FB12032CCC
:101C7500600B400978161208A53E99999A900103C0
:101C85001208743F4CCCCD9000D31208743F4CCC55
:101C9500CD9000ABE0FCA3E0FDA3E0FEA3E0FF12C6
:101CA5000035E4FBFA79C8784212032C4003021E82
:101CB50012E4FFFE7D967C449000A3E0F8A3E0F9D2
:101CC500A3E0FAA3E0FB12032C507BE4FFFE7DB4F6
:101CD5007C42900112E0F8A3E0F9A3E0FAA3E0FB4F
:101CE50012032C60054003021D9AE4FFFE7D707C03
:101CF50041900112E0F8A3E0F9A3E0FAA3E0FB129A
:101D0500032C60025003021E1290010FE0FAA3E0BB
:101D1500FBD39400EA6480948040107816E2FC08B6
:101D2500E2FD08E2FE08E2FF021DE3C3EA648094D7
:101D3500804003021E127816E2FC08E2FD08E2FE6E
:101D450008E2FF021E0CE4FFFE7D967C449000A392
:101D5500E0F8A3E0F9A3E0FAA3E0FB12032C60028C
:101D65005003021E129001031208743F75C2909031
:101D750000D31208743F75C290E4FFFE7DB47C4227
:101D8500900112E0F8A3E0F9A3E0FAA3E0FB120347
:101D95002C6005400302261BE4FFFE7D707C41900C
:101DA5000112E0F8A3E0F9A3E0FAA3E0FB12032C8B
:101DB500605B4059D3900110E0940090010FE064FE
:101DC500809480401E7F9A7E997D997C3F7816E2AB
:101DD500FB08E2F908E2FA08E2CBF8120186900165
:101DE500038027C390010FE064809480501F7F9A81
:101DF5007E997D997C3F7816E2FB08E2F908E2FAC4
:0D1E050008E2CBF81201869000D312085CB1
:011E120022AD
:1033E80030B604C2118002D21130B704C210800274
:1033F800D2102010047F0180027F002011047E017A
:0E34080080027E00EE5F6003D20122C201222C
:05203D0078161208688E
:10204200900127E0FCA3E0FDA3E0FEA3E0FF782ED1
:102052001208689001BCE0FCA3E0FDA3E0FEA3E04F
:10206200FF90012712085C9000FFE0F8A3E0F9A3BB
:10207200E0FAA3E0FBC0007816E2FC08E2FD08E209
:10208200FE08E2FFD0001200919001BC12085C90A1
:102092000127E0FCA3E0FDA3E0FEA3E0FF782A1203
:1020A20008689001BCE0FCA3E0FDA3E0FEA3E0FF12
:1020B2007826120868E4FFFEFDFC7816E2FB08E2CF
:1020C200F908E2FA08E2CBF812032C70028040E42D
:1020D200FFFEFD7CC07816E2FB08E2F908E2FA088E
:1020E200E2CBF812032C700D90009512087443167F
:1020F2000000022244E4FFFE7D407CC07816E2FB31
:1021020008E2F908E2FA08E2CBF812032C700D900B
:10211200009512087441200000022244781A120825
:10212200A542F00000781E1208A54248000078225D
:102132001208A540A00000900095E0F8A3E0F9A3E2
:10214200E0FAA3E0FBC000C001C002C003782AE2AB
:10215200FC08E2FD08E2FE08E2FF7826E2FB08E264
:10216200F908E2FA08E2CBF8120095781EE2FB08C1
:10217200E2F908E2FA08E2CBF8120186E4FBFAF986
:10218200784012028FC004C005C006C007782AE258
:10219200FB08E2F908E2FA08E2CBF8C0007826E28E
:1021A200FC08E2FD08E2FE08E2FFD000120091788E
:1021B2001AE2FB08E2F908E2FA08E2CBF812018619
:1021C200D003D002D001D000120095C004C005C0D7
:1021D20006C007E4FFFEFD7C40782AE2FB08E2F934
:1021E20008E2FA08E2CBF8120186C004A905AA06A1
:1021F200AB077826E2FC08E2FD08E2FE08E2FFD027
:1022020000120091782EE2FB08E2F908E2FA08E2F5
:10221200CBF81200957822E2FB08E2F908E2FA080C
:10222200E2CBF8120186D003D002D001D000120016
:1022320095D003D002D001D00012009590009512E3
:10224200085C900095E0FCA3E0FDA3E0FEA3E0FFA4
:062252001203E3123152F9
:012258002263
:051E13007816120868BA
:101E1800900117E0FCA3E0FDA3E0FEA3E0FF782E0D
:101E2800120868900134E0FCA3E0FDA3E0FEA3E003
:101E3800FF90011712085C9000A7E0F8A3E0F9A34F
:101E4800E0FAA3E0FBC0007816E2FC08E2FD08E235
:101E5800FE08E2FFD00012009190013412085C9055
:101E68000117E0FCA3E0FDA3E0FEA3E0FF782A123F
:101E78000868900134E0FCA3E0FDA3E0FEA3E0FFC6
:101E88007826120868E4FFFEFDFC7816E2FB08E2FB
:101E9800F908E2FA08E2CBF812032C700D9001C1A0
:101EA80012087441200000022028E4FFFEFD7CC0D7
:101EB8007816E2FB08E2F908E2FA08E2CBF8120326
:101EC8002C700D9001C112087443160000022028DE
:101ED800E4FFFE7D407CC07816E2FB08E2F908E2E8
:101EE800FA08E2CBF812032C70109001C1120874A2
:101EF8004120000090009502202B781A1208A54274
:101F0800F00000781E1208A5424800007822120846
:101F1800A540A000009001C1E0F8A3E0F9A3E0FA11
:101F2800A3E0FBC000C001C002C003782AE2FC089D
:101F3800E2FD08E2FE08E2FF7826E2FB08E2F90883
:101F4800E2FA08E2CBF8120095781EE2FB08E2F903
:101F580008E2FA08E2CBF8120186E4FBFAF97840C5
:101F680012028FC004C005C006C007782AE2FB0829
:101F7800E2F908E2FA08E2CBF8C0007826E2FC08A9
:101F8800E2FD08E2FE08E2FFD000120091781AE2B2
:101F9800FB08E2F908E2FA08E2CBF8120186D0035E
:101FA800D002D001D000120095C004C005C006C000
:101FB80007E4FFFEFD7C40782AE2FB08E2F908E22C
:101FC800FA08E2CBF8120186C004A905AA06AB07F5
:101FD8007826E2FC08E2FD08E2FE08E2FFD00012E3
:101FE8000091782EE2FB08E2F908E2FA08E2CBF861
:101FF8001200957822E2FB08E2F908E2FA08E2CB3F
:10200800F8120186D003D002D001D000120095D07A
:1020180003D002D001D0001200959001C112085CD3
:102028009001C1E0FCA3E0FDA3E0FEA3E0FF1203E2
:04203800E31231E599
:01203C002281
:1018C500900109E0FCA3E0FDEC1203AAC004C005E9
:1018D500C006C007781A1208A540000000D007D03E
:1018E50006D005D004122941C004C005C006C007B2
:1018F500900107E0FCA3E0FDEC1203AAC004C005BB
:10190500C006C007781A1208A540000000D007D00D
:1019150006D005D004122941D003D002D001D00051
:10192500120091E4FBFAF9784012028FE4FBFA7990
:1019350066784312028F9001CD12085C90010BE08E
:10194500FCA3E0FDEC1203AAC004C005C006C00755
:10195500781A1208A540000000D007D006D005D09F
:1019650004122941C004C005C006C007900109E062
:10197500FCA3E0FDEC1203AAC004C005C006C00725
:10198500781A1208A540000000D007D006D005D06F
:1019950004122941D003D002D001D000120091E4F5
:1019A500FBFAF9784012028FE4FBFA796678431264
:1019B500028F9001C512085C90010BE0FCA3E0FDCD
:1019C500EC1203AAC004C005C006C007781A1208A5
:1019D500A540000000D007D006D005D0041229414B
:1019E500C004C005C006C00790010DE0FCA3E0FDE2
:1019F500EC1203AAC004C005C006C007781A120875
:101A0500A540000000D007D006D005D0041229411A
:101A1500D003D002D001D000120091E4FBFAF9788E
:101A25004012028FE4FBFA7966784312028F900127
:101A3500D112085C90010DE0FCA3E0FDEC1203AAB5
:101A4500C004C005C006C007781A1208A5400000EA
:101A550000D007D006D005D004122941C004C00526
:101A6500C006C007900107E0FCA3E0FDEC1203AA45
:101A7500C004C005C006C007781A1208A5400000BA
:101A850000D007D006D005D004122941D003D002DA
:101A9500D001D000120091E4FBFAF9784012028FD0
:101AA500E4FBFA7966784312028F9001C912085C4B
:101AB5009001C9E0FCA3E0FDA3E0FEA3E0FF9001D7
:101AC500C5E0F8A3E0F9A3E0FAA3E0FB120095E472
:101AD500FBFAF9784012028F9000AB12085C900176
:101AE500D1E0FCA3E0FDA3E0FEA3E0FF9001CDE083
:101AF500F8A3E0F9A3E0FAA3E0FB120095E4FBFAF2
:101B0500F9784012028F9000CF12085C9000CFE068
:101B1500FCA3E0FDA3E0FEA3E0FFA804A905AA0637
:101B2500FB120186C004C005C006C0079000ABE0EB
:101B3500FCA3E0FDA3E0FEA3E0FFA804A905AA0617
:101B4500FB120186D003D002D001D000120095C04F
:101B550004C005C006C007781A1208A53F0000009A
:101B6500D007D006D005D0041229419000A3120851
:101B75005C9000ABE0FCA3E0FDA3E0FEA3E0FF78F2
:101B85001A1208689000CFE0FCA3E0FDA3E0FEA3D5
:101B9500E0FF122F89E4FBFA793478431201867B42
:101BA500C37AF57948784012028F90009902085C53
:102BEF009000ABE0FCA3E0FDA3E0FEA3E0FF780EB6
:102BFF00E2FB25E025E024AFF582E43400F58312F3
:102C0F00085C9000CFE0FCA3E0FDA3E0FEA3E0FF93
:102C1F00EB25E025E024D7F582E43400F583120894
:102C2F005CEB045407780EF29000FBE0FCA3E0FD90
:102C3F00A3E0FEA3E0FF90013812085C900112E0C0
:102C4F00FCA3E0FDA3E0FEA3E0FF9000FB12085CF5
:102C5F00E4FFFEFDFC9000ABE0F8A3E0F9A3E0FA7F
:102C6F00A3E0FB12032C4003022CF890010FE4F0B9
:102C7F00A304F090009DE0F8A3E0F9A3E0FAA3E02D
:102C8F00FB900099E0FCA3E0FDA3E0FEA3E0FF12A0
:102C9F000091C004C005C006C00790010FE0FCA35F
:102CAF00E0FDEC1203AAD003D002D001D000120134
:102CBF008690011212085CE4FFFEFDFC9000CFE04D
:102CCF00F8A3E0F9A3E0FAA3E0FB12032C5066E4AB
:102CDF00FFFE7D877C43900099E0F8A3E0F9A3E025
:102CEF00FAA3E0FB120095804674FF90010FF0A34A
:102CFF00F090009DE0F8A3E0F9A3E0FAA3E0FB90C9
:102D0F000099E0FCA3E0FDA3E0FEA3E0FF12009119
:102D1F00C004C005C006C00790010FE0FCA3E0FD92
:102D2F00EC1203AAD003D002D001D000120186907A
:062D3F00011212085C22E3
:1034C800E4900116F0900116E0FFC3944050147484
:1034D8003C2FF582E43401F583E4F0900116E00412
:0834E800F080E2E47813F22207
:04349E007FB87E0B6A
:1034A200E4FDFCC3ED9FEE6480F8EC648098501557
:1034B200E4FBFA0BBB00010ABA05F8BB46F50DBDE9
:0534C20000010C80DE9A
:0134C70022E2
:102458007812E2FC7814E2FF242BF582E43401F5CB
:1024680083ECF0780FE2FE741B2FF582E43401F55B
:1024780083EEF0EF0454077814F2E41203AF780AFD
:10248800120868780FE2FCE41203AF7806120868B5
:10249800E47802F208F27800F208F27812F2780F83
:1024A800F2F9742B29F582E43401F583E0600578AC
:1024B80000E204F2741B29F582E43401F583E0603C
:1024C800057801E204F2745429F582E43402F583B4
:1024D800E4F0745C29F582E43402F583E4F009E958
:1024E800B408BF7801E2B408047F0180027F007855
:1024F80000E2B408047E0180027E00EE5F700302F1
:10250800261AE47802F208F2F9E4FF742B2FF58218
:10251800E43401F583E0FE742B29F582E43401F5F7
:1025280083E0D39E40057802E204F20FEFB408DBA3
:10253800742B29F582E43401F583E0FF7802E2FD8B
:102548007800E2C39DFDE49400FC74532DF5827479
:10255800023CF583EFF0E4FF741B2FF582E43401AD
:10256800F583E0FE741B29F582E43401F583E0D39A
:102578009E40057803E204F20FEFB408DB741B29D0
:10258800F582E43401F583E0FF7803E2FD7801E2A7
:10259800C39DFDE49400FC745B2DF58274023CF548
:1025A80083EFF009E964086003022511E4FFFE786F
:1025B80004F208F27901745429F582E43402F583AF
:1025C800E02FFFE43EFE745C29F582E43402F583D3
:1025D800E0FD7805E22DF218E23400F209E9B407CB
:1025E800D5AD07AC06EC1203AAE4FBFA79C0784033
:1025F80012028F780A1208687804E2FC08E2FDECFF
:102608001203AAE4FBFA79C0784012028F78061206
:02261800086850
:01261A00229D
:10335A00C2A0C2A1C2A2C2A3C2A4C2A5EF4E700457
:10336A00D2A08030EF64014E7004D2A18026EF64AF
:10337A00024E7004D2A2801CEF64034E7004D2A3E2
:10338A008012EF64044E7004D2A48008EF64054EE4
:10339A007002D2A57F017E001234A2C2A0C2A1C2CD
:0833AA00A2C2A3C2A4C2A52225
:073152007832EEF208EFF203
:10315900D39400EE94044017187404F208E4F218AA
:10316900E2FC08E2FDE41203AA90009512085CC390
:103179007833E2940A18E294005016E4F208740ACB
:10318900F218E2FC08E2FDE41203AA900095120885
:103199005C900095E0F8A3E0F9A3E0FAA3E0FBE472
:1031A900FFFE7D807C441200911203E3AD07AC065B
:1031B900ECFFC454F0FEEF25E025E04EFFC2DEE44B
:1031C900F5D875D904F5E9F5F975DA4275F2C0EF64
:0B31D90042F2AF058FFA85FAEAD2DE61
:0131E40022C8
:0731E5007832EEF208EFF270
:1031EC00D39400EE94044017187404F208E4F21817
:1031FC00E2FC08E2FDE41203AA9001C112085CC3D0
:10320C007833E2940A18E294005016E4F208740A37
:10321C00F218E2FC08E2FDE41203AA9001C11208C4
:10322C005C9001C1E0F8A3E0F9A3E0FAA3E0FBE4B1
:10323C00FFFE7D807C441200911203E3AD07AC06C7
:10324C00ECFFC454F0FEEF25E025E04EFFC2DEE4B7
:10325C00F5D875D904F5E9F5F975DB4275F3C0EFCE
:0B326C0042F3AF058FFB85FBEBD2DEC9
:013277002234
:1033B200E4FFFE90013CE0B455010E90013DE0B403
:1033C200AA010E90013EE0B456010EEEB403167F40
:1033D20001900140E0FEB40206A3E0B4D1010FEE79
:0533E200B40D027F03A1
:0133E70022C3
:10347200C2A7C2A67596FFE4F595D288D2A8D28AD1
:10348200D2AA438E80758A48758CFFC28DD2A9D28A
:0C3492008C758B66758DFCD2ABD28E223F
:10355400E4F59A439A1075D7FE75D6FF438E10434F
:03356400AF012292
:1035670075AC5075D5E075D4FE75D10A43AF082206
:0C352C00747C2FF582E43401F583E0FF8D
:083538002003FDD2038F9B224A
:0C354000747C2FF582E43401F583E0FF79
:08354C002006FDD2068FAD221E
:0708FD007816EEF208EFF29D
:0809040064054E6003020A3491
:10090C0078427C007DFE7BFF7A2779BEFE7F281221
:10091C00074E786A7C007DFE7BFF7A2779E67E00A5
:10092C007F1412074E788174FFF2087427F2087452
:10093C00B2F29000A3E0FCA3E0FDA3E0FEA3E0FF75
:10094C00081208687BFE7A00791A1210627881749A
:10095C00FEF2087400F208741AF27BFE7A007942F7
:10096C001232EE788174FFF2087427F20874B8F230
:10097C00900099E0FCA3E0FDA3E0FEA3E0FF0812C9
:10098C0008687BFE7A00792E121062788174FEF270
:10099C00087400F208742EF27BFE7A00796A123227
:1009AC00EE788174FEF2087400F208746AF27BFE31
:1009BC007A0079421232EE7BFE7A007942123517B8
:1009CC007818EFF290017C74FDF0E4A3F0EF2402B0
:1009DC00A3F0A37401F0E4A3F07B017A01797C12FB
:1009EC0035177818EFF2E408F27819E2FFC3940592
:1009FC005008123540E204F280EF7BFE7A00794217
:100A0C001235177818EFF2E408F27818E2FF08E2D2
:100A1C00FEC39F400302100574422EF8E2FF12350C
:080A2C004C7819E204F280E2AB
:0E0A34007817E26401700218E26003020AC53E
:100A4200781A7C007DFE7BFF7A2779FAFE7F1C12E2
:100A5200074E7BFE7A00791A1235177818EFF2905A
:100A6200017C74FDF0E4A3F0EF2402A3F0A374016F
:100A7200F0E4A3F07B017A01797C1235177818EF44
:100A8200F2E408F27819E2FFC394055008123540E7
:100A9200E204F280EF7BFE7A00791A123517781899
:100AA200EFF2E408F27818E2FF08E2FEC39F400387
:100AB200021005741A2EF8E2FF12354C7819E2047E
:030AC200F280E2DD
:0E0AC5007817E26409700218E26003020B5613
:100AD300781A7C007DFE7BFF7A287916FE7F33121D
:100AE300074E7BFE7A00791A1235177818EFF290C9
:100AF300017C74FDF0E4A3F0EF2402A3F0A37401DE
:100B0300F0E4A3F07B017A01797C1235177818EFB2
:100B1300F2E408F27819E2FFC39405500812354055
:100B2300E204F280EF7BFE7A00791A123517781807
:100B3300EFF2E408F27818E2FF08E2FEC39F4003F5
:100B4300021005741A2EF8E2FF12354C7819E204EC
:030B5300F280E24B
:0E0B56007817E2640A700218E26003020BE7EF
:100B6400781A7C007DFE7BFF7A287949FE7F20126B
:100B7400074E7BFE7A00791A1235177818EFF29037
:100B8400017C74FDF0E4A3F0EF2402A3F0A374014C
:100B9400F0E4A3F07B017A01797C1235177818EF21
:100BA400F2E408F27819E2FFC394055008123540C4
:100BB400E204F280EF7BFE7A00791A123517781876
:100BC400EFF2E408F27818E2FF08E2FEC39F400364
:100BD400021005741A2EF8E2FF12354C7819E2045B
:030BE400F280E2BA
:0E0BE7007817E2640C700218E26003020C78CA
:100BF50078C57C017D017BFF7A287969FE7F171214
:100C0500074E7B017A0179C51235177818EFF290F6
:100C1500017C74FDF0E4A3F0EF2402A3F0A37401BA
:100C2500F0E4A3F07B017A01797C1235177818EF8F
:100C3500F2E408F27819E2FFC39405500812354032
:100C4500E204F280EF7B017A0179C5123517781835
:100C5500EFF2E408F27818E2FF08E2FEC39F4003D2
:100C650002100574C52EF582E43401123548E204FC
:030C7500F280E228
:0E0C78007817E2640D700218E26003020D09A5
:100C860078DC7C017D017BFF7A287980FE7F7812F3
:100C9600074E7B017A0179DC1235177818EFF2904E
:100CA600017C74FDF0E4A3F0EF2402A3F0A3740129
:100CB600F0E4A3F07B017A01797C1235177818EFFE
:100CC600F2E408F27819E2FFC394055008123540A1
:100CD600E204F280EF7B017A0179DC12351778188D
:100CE600EFF2E408F27818E2FF08E2FEC39F400341
:100CF60002100574DC2EF582E43401123548E20454
:030D0600F280E296
:0E0D09007817E2640B700218E26003020D9A84
:100D1700781A7C007DFE7BFF7A2879F8FE7F161211
:100D2700074E7BFE7A00791A1235177818EFF29082
:100D3700017C74FDF0E4A3F0EF2402A3F0A3740197
:100D4700F0E4A3F07B017A01797C1235177818EF6C
:100D5700F2E408F27819E2FFC3940550081235400F
:100D6700E204F280EF7BFE7A00791A1235177818C1
:100D7700EFF2E408F27818E2FF08E2FEC39F4003AF
:100D8700021005741A2EF8E2FF12354C7819E204A6
:030D9700F280E205
:0E0D9A007817E26406700218E26003020E2B66
:100DA800781A7C007DFE7BFF7A29790EFE7F11126E
:100DB800074E7BFE7A00791A1235177818EFF290F1
:100DC800017C74FDF0E4A3F0EF2402A3F0A3740106
:100DD800F0E4A3F07B017A01797C1235177818EFDB
:100DE800F2E408F27819E2FFC3940550081235407E
:100DF800E204F280EF7BFE7A00791A123517781830
:100E0800EFF2E408F27818E2FF08E2FEC39F40031D
:100E1800021005741A2EF8E2FF12354C7819E20414
:030E2800F280E273
:0E0E2B007817E26407700218E26003020EBC42
:100E3900781A7C007DFE7BFF7A29791FFE7F1112CB
:100E4900074E7BFE7A00791A1235177818EFF2905F
:100E5900017C74FDF0E4A3F0EF2402A3F0A3740174
:100E6900F0E4A3F07B017A01797C1235177818EF49
:100E7900F2E408F27819E2FFC394055008123540EC
:100E8900E204F280EF7BFE7A00791A12351778189E
:100E9900EFF2E408F27818E2FF08E2FEC39F40038C
:100EA900021005741A2EF8E2FF12354C7819E20483
:030EB900F280E2E2
:0E0EBC007817E26408700218E26003020F4D1E
:100ECA00781A7C007DFE7BFF7A297930FE7F111229
:100EDA00074E7BFE7A00791A1235177818EFF290CE
:100EEA00017C74FDF0E4A3F0EF2402A3F0A37401E3
:100EFA00F0E4A3F07B017A01797C1235177818EFB8
:100F0A00F2E408F27819E2FFC3940550081235405A
:100F1A00E204F280EF7BFE7A00791A12351778180C
:100F2A00EFF2E408F27818E2FF08E2FEC39F4003FA
:100F3A00021005741A2EF8E2FF12354C7819E204F1
:030F4A00F280E250
:100F4D0090017C7455F0A374AAF090017F7456F053
:100F5D007816E2FC08E2FD64024C702D90017E745F
:100F6D0010F09001807402F0A37463F0A37401F08B
:100F7D00A3749BF0E47819F27819E2FFC39408503A
:100F8D007712352CE204F280EFED64034C702F9054
:100F9D00017E7410F0A37456F0A37402F0A3745282
:100FAD00F0A37401F0A374ACF0E47819F27819E2AF
:100FBD00FFC39408504212352CE204F280EF7817EB
:100FCD00E26404700218E2702F90017E74F1F0A3B8
:100FDD007456F0A37402F0A37451F0A37420F0A31F
:100FED00748EF0E47819F27819E2FFC39408500872
:080FFD0012352CE204F280EF32
:0110050022C8
:03000300023416AE
:10341600C0E0C0D075D0087812E22401FFE433FE84
:10342600D3EF94FFEE64809480400A7C007DFF7E9B
:0E343600007FFF80007812EFF2D0D0D0E0329D
:0300130002344470
:10344400C0E0C0D075D008780FE22401FFE433FE59
:10345400D3EF94FFEE64809480400A7C007DFF7E6D
:0E346400007FFF8000780FEFF2D0D0D0E03272
:03000B00020009E7
:0100090032C4
:03001B00020006DA
:03000600D20932EA
:03008B0002001E52
:10001E00C0E0E5AC30E00353ACFEE5AC30E1055397
:07002E00ACFDC206D0E03278
:0300430002004672
:10004600C0E0C083C082C0D075D008E59A30E01801
:10005600539AFE7813E2FF243CF582E43401F583DB
:10006600E59BF0EF04543FF2E59A30E105539AFD23
:0B007600C203D0D0D082D083D0E03293
:10008E0002044FE86480F8E933E83360110460F04D
:10009E00ED33EC337009E8FCE9FDEAFEEBFF2204D8
:1000AE0060DED3EB9FEA9EE99DE8C2E78CF0C2F7D3
:1000BE0095F0400CE8CCF8E9CDF9EACEFAEBCFFB9F
:1000CE0012041A85D0F05804700320D5B3E80470DA
:1000DE00075002B2D502045992D5EC0460F7E4CC75
:1000EE00C0E0C398F8603B94186008400DD0E0FB68
:1000FE00020431E4FBFAC9FC8028E830E406E4C9C6
:10010E00FBE4CAFCE830E305E4C9CACBFCE85407BB
:10011E006010F8C3E913F9EA13FAEB13FBEC13FCC6
:10012E00D8F130F52FC3E49CFCEF9BFFEE9AFEED69
:10013E0099FDD0E0FBEF4E4D4C701222DB03020412
:10014E0056EC2CFCEF33FFEE33FEED33FDED30E7D6
:10015E00EB020431EF2BFFEE3AFEED39FDD0E0FB62
:10016E0050130BBB0003020459ED13FDEE13FEEF0B
:08017E0013FFEC13FC02043135
:10018600EC4D6011E8497017ED33EC3304600DE473
:10019600FCFFFEFD22E933E8330470F802044F1237
:1001A600041A58046009E4CC248150062850090238
:1001B6000459284003020456C0E0EB4A7044B98053
:1001C60006D0E0FB020445EF4E701CBD8008EBFF35
:1001D600EAFEE9FD80EBE98DF0A4FEE5F002026F90
:1001E600E9CDF9EAFEEBFFEF89F0A4FCE5F0CE8954
:1001F600F0A42EFFE435F0CD89F0A42DFEE435F011
:100206008067EF4E7005BD80D780C3EF8BF0A4AC3E
:10021600F0EE8BF0A42CFCE435F0F8EF8AF0A42C79
:10022600E5F038FCE433CB8DF0A42CFCE5F03BF88C
:10023600EE8AF0A42CFCE5F038F8E433CF89F0A47C
:100246002CFCE5F038CF3400CE89F0A42FFFE5F082
:100256003EFEE433C98DF0A42EFEE5F039CD8AF0DA
:10026600A42FFFE5F03EFEE43DFD33D0E0FB500752
:100276000BBB000F020459EC2CFCEF33FFEE33FEF0
:06028600ED33FD0204311E
:10028C00020459EC5D046005E85904700302044F44
:10029C0012041A580460F6EC4860F2EC7004FDFE8F
:1002AC00FF22C860DB2481C85009C3986002500645
:1002BC000204569850CAF582E9294B4A7005AB8264
:1002CC0002044575F0007C1A7880C3EF9BEE9AED22
:1002DC0099400DC3EF9BFFEE9AFEED99FDE842F0BD
:1002EC00DC23ACF0D0E0FFD0E0FED0E0FDAB822010
:1002FC00E7101BEB60BAEC2CFCEF33FFEE33FEED9A
:10030C0033FD020431E803F830E705C0F075F00066
:10031C00EF2FFFEE33FEED33FD40B830E7C280AA7D
:10032C0074F8CC6480CCC86480C8F58204604FC378
:10033C00EB9FF5F0EA9E42F0E99D42F0E89C45F017
:10034C00603C501DE5825FFFE582D313CB5BCBF4A1
:10035C002B5582FB50280ABA002409B900200880CA
:10036C001DE5825BFBE582D313CF5FCFF4C3132F64
:10037C005582FF50090EBE00050DBD00010CC3EBEC
:10038C009FF5F0EA9E42F0E99D42F0E89C45F06052
:09039C0007CC4820E701B3EC2274
:1003A50075F020800E75F010800575F0087D007ED3
:1003B500007F003392D530D503120821EC3340106D
:1003C500EF33FFEE33FEED33FDEC33FCD5F0ED22DC
:0E03D500E5F0247EA2D513CC92E7CDCEFF2218
:1003E300EDD2E7CD33EC3392D524814006E4FFFE12
:1003F300FDFC22FCE4CFCECDCC24E0501174FF8071
:10040300EDC3CC13CCCD13CDCE13CECF13CF04700D
:07041300F030D5DE020821E4
:10100600E5102481F8E2051022787E301E027881F0
:10101600E475F0011208BE0207742017EB7F2ED28A
:10102600178018EF540F2490D43440D4FF301B0B94
:10103600EF24BFB41A0050032461FFE511600215C6
:10104600110514E51470020513301E0D787EE47543
:10105600F0011208BEEF0207BA0234F07403D21E82
:101066008003E4C21EF510787E1208CEE4F511F571
:1010760013F514E51160077F2012104180F57512F3
:10108600FFC218C217C219C21AC21CC21DC21F1241
:10109600100FFF700D301E057F00121052AF14AEF8
:1010A6001322B4255FC2D5C21B12100FFF24D0B481
:1010B6000A00501A75F00A781130D50508B6FF01F6
:1010C60006C6A426F620D5047002D21A80D924CFEB
:1010D600B41A00EF5004C2E5D21B02133ED21880A8
:1010E600C6D21780C0D21980BCD2D580BAD21C8095
:1010F600B47F201210412019077401B5110040F188
:10110600121006FF121041021079D21FD21D8095CF
:10111600121006FB121006FA121006F94A4B700658
:1011260079357A147BFF20192EE511602A7E008E10
:101136008275830012078D60060EEE651270F0C28E
:10114600D5EBC0E0EAC0E0E9C0E0EE12139ED0E0C5
:10115600F9D0E0FAD0E0FB120774FF60AAEBC0E01A
:10116600EAC0E0E9C0E0121041D0E02401F9D0E085
:101176003400FAD0E0FBE5120460DCD512D9808792
:10118600D21980A212138160F7E5127001041204CD
:101196008FA912600DE512600914F512121428EFDA
:1011A60060F3EA30E702F404C3995077EAF42512B3
:1011B6000430E701E404F512800D12138160C1EAE0
:1011C6000512251212048FEA7894F230E701E4251D
:1011D6001204D51204201C011412139EE4C0E0125E
:1011E60014287894E2601320E70714F2121029807D
:1011F6002204F2D0E014C0E07F00121029E512604C
:10120600071210201512800B301C03121020D0E09C
:10121600021079D0E00480C512138160A0E51204A3
:1012260012048F7894EAF2E512201C02600104246D
:0C1236000412139E74FF04C0E012142880
:10124200121029E512201C026003121020D0E0B512
:1012520012E87F451210337894E27F2B30E7047F47
:101262002DF404C0E0121041D0E075F00A84C0F001
:1012720012102AD0E012102A021079791080027915
:1012820008C21DC21F8008D2D5790A8004790AC219
:10129200D5E512047002F512E4FAFDFEFF12100603
:1012A200FC7B08201813121006FD7B1030170A125F
:1012B2001006FE121006FF7B20EC3382D592D55029
:1012C20013C3E43017069FFFE49EFEE42018039D3B
:1012D200FDE49CFCE4CBF8C218EC700CCFCECDCC74
:1012E200E824F8F870F38017C3EF33FFEE33FEED16
:1012F20033FDEC33FCEB33FB994002FB0FD8E9EBF7
:10130200301805F8D0E0C448B218C0E00AEC4D4EDF
:101312004F78207B0070C2EAB5120040BCC0E012D8
:1013220013A0D0F0D0E0201804C4C0E0C4B218C0AA
:10133200F012102AD0F0D5F0EB0210791208D71172
:101342001653127D5810E74C10E34212814F128956
:101352004412894910FC43128F5511C046121E4592
:10136200118A4714555010EB2D10EF2E11122B102D
:10137200F323111020143E2A10AB480000110AE595
:1013820012B4FF03751206121006FC121006FD12AB
:101392001006FE121006FF788D0204BE790AA2D54D
:1013A200201A14301C09B910020404B9080104A25D
:1013B200D5201D025001042019689219B511005060
:1013C20034C0E07F20301A197F30A219721D721CBE
:1013D200500F1213F7C219C21DC21CC21F7F3080E8
:1013E2000F301C03E9C0E0121041301C03D0E0F9B9
:1013F200D0E0B511CC301C177F30B9100C1210415F
:101402007F58301B077F788003B9080312104130E0
:1014120019057F2D0210417F20201FF87F2B201DF0
:10142200F322921980CF7F00B407005005248DF873
:10143200E2FF22286E756C6C2900D2181210063059
:1014420018F8C218781130D50108F60210AB2D50E9
:101452004349581210062403B405004001E49014D5
:101462005093121032743A121032D21A75110402C9
:02147200127DE9
:0D003500ED33EC3360065004EC6480FC22D7
:102F89007816120868781AE2FB08E2F908E2FA08EA
:102F9900E2CBF8E8C0E07816E2FC08E2FD08E2FEC0
:102FA90008E2FFD0E0F812028F122E887816120874
:102FB90068781AE230E7577816E2FC08E2FD08E281
:102FC900FE08E2FFECC0E0EDC0E0EEC0E0EFC0E0DB
:102FD900E4FFFEFDFC7816E2FB08E2F908E2FA08D4
:102FE900E2CBF812032C7BDB600250087A0F794997
:102FF900784080067A0F794978C0D0E0FFD0E0FEAA
:10300900D0E0FDD0E0FC1200957816120868781619
:0C301900E2FC08E2FD08E2FE08E2FF22F3
:102941007816120868E4FFFE7D807C3F7816E2FB72
:1029510008E2F908E2FA08E2CBF812032C700578D4
:1029610016022A8D7816E2FC08E2FD08E2FE08E272
:10297100FF120464FB08E2FC08E2FD08E2FE08E243
:10298100FF120464FFB40108E4FFFE7D807C3F2256
:10299100EF64046029EB64046024EBB4012EE4FFCE
:1029A100FEFDFC781AE2FB08E2F908E2FA08E2CB44
:1029B100F812032C60084006E4FFFEFDFC22781AA1
:1029C1001208A5FFFFFFFF781A022A8DE4781EF294
:1029D10008F2FFFEFDFC7816E2FB08E2F908E2FAD4
:1029E10008E2CBF812032C505D781AE2FC08E2FDF4
:1029F10008E2FE08E2FF1203E3781EEEF208EFF2AE
:102A0100FDCCEECCEC1203AAECC0E0C9EDC9CAEED4
:102A1100CACBEFCB781AE2FC08E2FD08E2FE08E23D
:102A2100FFD0E0F8120091E4FBFAF9F812032C70E0
:102A31008D7816E2FC08E2FD08E2FE08E2FF1204CE
:102A41007E78161208687816E2FC08E2FD08E2FEBC
:102A510008E2FF122D79781AE2FB08E2F908E2FA9E
:102A610008E2CBF812018612305D781A12086878F4
:102A71001FE230E015781AE2FC08E2FD08E2FE08E8
:102A8100E2FF12047E781A120868781AE2FC08E262
:082A9100FD08E2FE08E2FF224D
:10041A00E9D2E7C933E833F892D5EDD2E7CD33EC28
:07042A0033FC5002B2D522A1
:10043100EC30E7100FBF000C0EBE00080DBD00042C
:100441000BEB6014A2D5EB13FCED92E7FD2274FFD8
:10045100FCFDFEFF22E480F8A2D574FF13FC7D8031
:03046100E480EF45
:10046400ED33EC33601004700FED547F70057402AB
:0A04740092E0227404220422E42224
:10047E00ED33EC33600A047003BD8004ECB2E7FC8C
:01048E00224B
:10048F00F920E72824F950037907E4F42402FB1834
:10049F00DBFDE224FB5014E9600DE4F218E204F2F4
:0F04AF00B40A08E4F2D9F57401F20A22C2D52288
:1004BE00ED33EC3392D5FA602AB4FF33EDC2E77B0D
:1004CE00FF60067A0479E3E4227A0479EC20D504FD
:1004DE007A0479E7224E614E002B494E46002D4993
:1004EE004E4600E47A08F208DAFC7B00740722E834
:1004FE00C0E0ECC0E0EDC0E0EEC0E0EFC0E0EA75B9
:10050E00F010A4CAABF075F04DA42BFBE435F0FC53
:10051E00EA2410FAEB34C5FBEC34D9FCEDC2E7FF4C
:10052E0075F056A4F42411C5F0F434C58FF0A42A46
:10053E00E5F03BE43CF220E7141205F1D0E0FFD0E9
:10054E00E0FED0E0FDD0E0FC12028F8014F4041225
:10055E0005F1D0E0FFD0E0FED0E0FDD0E0FC1201CE
:10056E0086D0E0F8E2FAEDD2E7CD33EC332482FB0D
:10057E00E4C3CF33CFCE33CECD33CD33DBF37B07D6
:10058E0075F00A846004F2081B0AE5F0F2088FF099
:10059E00740AA4FFACF08EF0740AA42CFEACF050DA
:1005AE00010C8DF0740AA42CFDE435F0F208DBDEAC
:0305BE007407229D
:1030250033DA929E35B16011377FE5FE3921848907
:103035003AAEC3FF3C1D955B3D6358473E75FDF0B9
:103045003F3172183F800000C2D502045902044F77
:10305500BD80FA50F3020456ED33EC330460F17B86
:103065003B7AAA79B8783F120186ED33EC3392D5D5
:10307500247B5011A2D570DB500BED448024045005
:1030850004A2D580CEEFFBEEFAEDF9ECF81203E3DE
:10309500EFF582F404FC1203AF120095C082903064
:1030A500257409120640ED33CC33D0F092D525F0C6
:0A30B500A2D57001C313CC13FD2255
:102D45003E9248DA3ECCCCCD3F2AAAAB40000000EB
:102D55003F8000003F9837F03FB504F33FD744FC70
:102D65003E3172173EB172173F0515913EDE5BD9B4
:102D7500D2178002C217EDD2E7F8CD33EC330470D9
:102D85000BBD800592D502045902044F40FBD314B4
:102D950060F2F5F07C3FEE7A00C39496C8948B40C0
:102DA500230AC89469C8941A401A0AC89468C89432
:102DB5001F40110AC8945AC89425400805F07A00A6
:102DC500CDC2E7CDC0F07820120868EA2323C0E021
:102DD5002455F582E4342DF58312084C120095EC48
:102DE500C0E0EDC0E0EEC0E0EFC0E012082F7820B3
:102DF50012083F120091D0E0FBD0E0FAD0E0F9D004
:102E0500E0B2E7F812028F7820120868902D457419
:102E150003120631782012083F120186D0E0600FB8
:102E25002461F582E4342DF58312084C120095785F
:102E350020120868D0E0C3947FFDE49400FC1203DF
:102E4500AA7B187A727931783F12018678201208A8
:102E55003F12009530170B7BD97A5B79DE783E12ED
:032E6500018622C1
:102E6800BE1249253E4CCCCDBEAAAAAB3F8000007D
:102E78003E7ADBB03EED63383F24BC7D3F490FDB33
:102E8800ED33ECC2E7CC339217B4FF13ED547F60F7
:102E98000302044F7FDB7E0F7DC97C3F022F7CC27B
:102EA80018C3947F401E7007EDD2E794904015EF49
:102EB800FBEEFAEDF9ECF87F007E007D807C3F1296
:102EC800028FD218ED33EC33248430E705E4C0E0F8
:102ED800806C04FAEDD2E754F0C333DAFD540734BA
:102EE800002323C0E0CCC0E0F8EDC0E0F9EEC0E07C
:102EF800FAEFC0E0FBE41203AFEC24FEFC88F078A4
:102F08001E120868A8F01201867B007A0079807882
:102F18003F120095781EE2B2E7CCF208E2CDF20843
:102F2800E2CEF208E2CFF2D0E0FBD0E0FAD0E0F94E
:102F3800D0E0F8120095781E12083F12028F781E12
:102F4800120868902E687403120631781E12083F22
:102F5800120186D0E0600F2474F582E4342EF583E4
:102F680012084C12009530180B7BDB7A0F79C97860
:102F7800BF120095ED33EC336006ECA21792E7FC24
:012F88002226
:1005C1003F8000004120000042C80000447A000042
:1005D100461C400047C35000497424004B189680C4
:1005E1004CBEBC205A0E1BCA6753C21C749DC5AEBB
:1005F100FB60065407601C232312061FEB5438606E
:100601000912060B12061A120186ECF8EDF9EEFA40
:10061100EFCB22EB12061A80F1543803241C90050B
:10062100C1FE93FC0EEE93FD0EEE930ECE93FF22D0
:10063100C0E0EFFBEEFAEDF9ECF8120186D0E0F53F
:10064100F0EFFBEEFAEDF9ECF812082FA3A3A3A348
:10065100E8C0E0E9C0E0EAC0E0EBC0E0C0F01201B0
:100661008612084CA3A3A3A3120095D0F0D0E0FBFF
:0D067100D0E0FAD0E0F9D0E0F8D5F0D422C6
:030000000235774F
:0C357700787FE4F6D8FD758123021474FF
:10067E00E709F608DFFA8046E709F208DFFA803E5E
:10068E0088828C83E709F0A3DFFA8032E309F6084B
:10069E00DFFA8078E309F208DFFA807088828C83B3
:1006AE00E309F0A3DFFA806489828A83E0A3F60867
:1006BE00DFFA805889828A83E0A3F208DFFA804C41
:1006CE0080D280FA80C680D4806980F28033801018
:1006DE0080A680EA809A80A880DA80E280CA803381
:1006EE0089828A83ECFAE493A3C8C582C8CCC583F9
:1006FE00CCF0A3C8C582C8CCC583CCDFE9DEE780C9
:10070E000D89828A83E493A3F608DFF9ECFAA9F047
:10071E00EDFB2289828A83ECFAE0A3C8C582C8CC9D
:10072E00C583CCF0A3C8C582C8CCC583CCDFEADEB6
:10073E00E880DB89828A83E493A3F208DFF980CC18
:10074E0088F0EF60010E4E60C388F0ED2402B40411
:10075E000050B9F582EB2402B4040050AF232345B8
:06076E0082239006CE7309
:10077400BB010689828A83E0225002E722BBFE0283
:09078400E32289828A83E49322B6
:10078D00BB010CE58229F582E5833AF583E0225021
:10079D0006E92582F8E622BBFE06E92582F8E2226B
:0D07AD00E58229F582E5833AF583E4932285
:1007BA00BB010689828A83F0225002F722BBFE011E
:0207CA00F32218
:1007CC00BC000BBE0029EF8DF084FFADF022E4CC11
:1007DC00F875F008EF2FFFEE33FEEC33FCEE9DECDA
:1007EC00984005FCEE9DFE0FD5F0E9E4CEFD22ED20
:1007FC00F8F5F0EE8420D21CFEADF075F008EF2F6A
:10080C00FFED33FD4007985006D5F0F222C398FD5A
:05081C000FD5F0EA22F7
:0E082100C3E49FFFE49EFEE49DFDE49CFC22E8
:10082F00E493FC740193FD740293FE740393FF220F
:0D083F00E2FB08E2F908E2FA08E2CBF82239
:10084C00E493F8740193F9740293FA740393FB2202
:0C085C00ECF0A3EDF0A3EEF0A3EFF0220F
:0C086800ECF208EDF208EEF208EFF222CC
:10087400A8828583F0D083D08212088B12088B1251
:10088400088B12088BE473E493A3C583C5F0C58376
:10089400C8C582C8F0A3C583C5F0C583C8C582C8CE
:0108A4002231
:1008A500D083D082E493F208740193F20874029322
:0908B500F208740393F274047359
:1008BE00FAE2FB0808E2F925F0F218E2CA3AF2224F
:0908CE00EBF208EAF208E9F2225B
:1008D700D083D082F8E4937012740193700DA3A3B0
:1008E70093F8740193F5828883E4737402936860C4
:0608F700EFA3A3A380DFC4
:1034F000EFB40A07740D1234FB740A309811A899BE
:10350000B8130CC2983098FDA899C298B811F6303B
:0735100099FDC299F5992213
:0C358300EE30E707C3E49FFFE49EFE2249
:1032EE00787EEBF208EAF208E9F27884EBF208EA6B
:1032FE00F208E9F2787EE2FB0808E2F92401F218FE
:10330E00E2FA3400F212077470EA7880E224FFF2D7
:10331E0018E234FFF27881E2FB0808E2F92401F2A8
:10332E0018E2FA3400F2120774FF787EE2FB080806
:10333E00E2F92401F218E2FA3400F2EF1207BA7041
:0C334E00D47884E2FB08E2FA08E2F922DD
:10351700E4FFFE120774600C0FEF70010E09E970EB
:05352700F20A80EF2212
:00000001FF
